{
  "transactions": [
    {
      "hash": "0x3cd5627f28d7c158347e5f11800f377f3bcb79b71c4919fd22389c26c5f2edd0",
      "transactionType": "CALL",
      "contractName": null,
      "contractAddress": "0x08fdbc4d19faed31b2efed1910c3dc4d14ee37df",
      "function": "applyChainUpdates(uint64[],(uint64,bytes[],bytes,(bool,uint128,uint128),(bool,uint128,uint128))[])",
      "arguments": [
        "[]",
        "[(6898391096552792247, [0x000000000000000000000000ca7c4e958a709f6125091cbb96d89c3885f2f600], 0x000000000000000000000000572d19ae725f7915b432c487bb2cbbc24c69edbb, (false, 0, 0), (false, 0, 0))]"
      ],
      "transaction": {
        "from": "0x8ffa18f05056458dbfb2f7a122f185878b2d6e2f",
        "to": "0x08fdbc4d19faed31b2efed1910c3dc4d14ee37df",
        "gas": "0x686b5",
        "value": "0x0",
        "input": "0xe8a1da17000000000000000000000000000000000000000000000000000000000000004000000000000000000000000000000000000000000000000000000000000000600000000000000000000000000000000000000000000000000000000000000000000000000000000000000000000000000000000000000000000000000000000100000000000000000000000000000000000000000000000000000000000000200000000000000000000000000000000000000000000000005fbc02272fbf20b7000000000000000000000000000000000000000000000000000000000000012000000000000000000000000000000000000000000000000000000000000001a0000000000000000000000000000000000000000000000000000000000000000000000000000000000000000000000000000000000000000000000000000000000000000000000000000000000000000000000000000000000000000000000000000000000000000000000000000000000000000000000000000000000000000000000000000000000000000000000000000000000000000000000000000000000000000000000000000000000000000000000000000000000000000000000000000000000000000000000000000000000000000000000000000000000000000100000000000000000000000000000000000000000000000000000000000000200000000000000000000000000000000000000000000000000000000000000020000000000000000000000000ca7c4e958a709f6125091cbb96d89c3885f2f6000000000000000000000000000000000000000000000000000000000000000020000000000000000000000000572d19ae725f7915b432c487bb2cbbc24c69edbb",
        "nonce": "0x6e",
        "chainId": "0xaa36a7"
      },
      "additionalContracts": [],
      "isFixedGasLimit": false
    }
  ],
  "receipts": [
    {
      "status": "0x1",
      "cumulativeGasUsed": "0xcccbc5",
      "logs": [
        {
          "address": "0x08fdbc4d19faed31b2efed1910c3dc4d14ee37df",
          "topics": [
            "0x7d628c9a1796743d365ab521a8b2a4686e419b3269919dc9145ea2ce853b54ea",
            "0x0000000000000000000000000000000000000000000000005fbc02272fbf20b7"
          ],
          "data": "0x00000000000000000000000000000000000000000000000000000000000000200000000000000000000000000000000000000000000000000000000000000020000000000000000000000000ca7c4e958a709f6125091cbb96d89c3885f2f600",
          "blockHash": "0xa19b8a81c2ff59d48c1d7d892620b25396b8e240bb26ffc4fad1ab092a7457a5",
          "blockNumber": "0x857a11",
          "blockTimestamp": "0x687240f0",
          "transactionHash": "0x3cd5627f28d7c158347e5f11800f377f3bcb79b71c4919fd22389c26c5f2edd0",
          "transactionIndex": "0xb7",
          "logIndex": "0x133",
          "removed": false
        },
        {
          "address": "0x08fdbc4d19faed31b2efed1910c3dc4d14ee37df",
          "topics": [
            "0x8d340f17e19058004c20453540862a9c62778504476f6756755cb33bcd6c38c2"
          ],
          "data": "0x0000000000000000000000000000000000000000000000005fbc02272fbf20b700000000000000000000000000000000000000000000000000000000000001000000000000000000000000000000000000000000000000000000000000000000000000000000000000000000000000000000000000000000000000000000000000000000000000000000000000000000000000000000000000000000000000000000000000000000000000000000000000000000000000000000000000000000000000000000000000000000000000000000000000000000000000000000000000000000000000000000000000000000000000000000000000000000000000000000000000000000000000000000000000000000000000000000000000000020000000000000000000000000572d19ae725f7915b432c487bb2cbbc24c69edbb",
          "blockHash": "0xa19b8a81c2ff59d48c1d7d892620b25396b8e240bb26ffc4fad1ab092a7457a5",
          "blockNumber": "0x857a11",
          "blockTimestamp": "0x687240f0",
          "transactionHash": "0x3cd5627f28d7c158347e5f11800f377f3bcb79b71c4919fd22389c26c5f2edd0",
          "transactionIndex": "0xb7",
          "logIndex": "0x134",
          "removed": false
        }
      ],
      "logsBloom": "0x00000000000000400000000000000000000000000000000000000000000000000000000000000000000000000000000000000000000000000004000000000004000040000000000000000000040000000000000000000000000000000000000000000000000000000000000000000040000000000000000000000000000000400000000000000000000000000000000000000000000000000000000000000000000000000000008000000000000000000000000000000000000000000000000000000000000000000080000000000000000000000000000000000000000000000000000000000000000000000000000400000000008000000100000000000000",
      "type": "0x2",
      "transactionHash": "0x3cd5627f28d7c158347e5f11800f377f3bcb79b71c4919fd22389c26c5f2edd0",
      "transactionIndex": "0xb7",
      "blockHash": "0xa19b8a81c2ff59d48c1d7d892620b25396b8e240bb26ffc4fad1ab092a7457a5",
      "blockNumber": "0x857a11",
      "gasUsed": "0x4b990",
      "effectiveGasPrice": "0x3c0c32da",
      "from": "0x8ffa18f05056458dbfb2f7a122f185878b2d6e2f",
      "to": "0x08fdbc4d19faed31b2efed1910c3dc4d14ee37df",
      "contractAddress": null
    }
  ],
  "libraries": [],
  "pending": [],
  "returns": {},
  "timestamp": 1752318193,
  "chain": 11155111,
  "commit": "a8d5c7c"
}