{
  "transactions": [
    {
      "hash": "0x5153be1ea3877f0424c9f105bfcc9579167b5903ad499a6bb6ac5fa7d2282713",
      "transactionType": "CALL",
      "contractName": null,
      "contractAddress": "0x52e9c73815f8e4e246473b814d9e5c3cb0e8ff3e",
      "function": "applyChainUpdates(uint64[],(uint64,bytes[],bytes,(bool,uint128,uint128),(bool,uint128,uint128))[])",
      "arguments": [
        "[]",
        "[(6898391096552792247, [0x0000000000000000000000009eb5f70340e4cca65cedf46b758faf2658dd6474], 0x0000000000000000000000005c93a030c60bdaba4c410ec5c28cebd391f53070, (false, 0, 0), (false, 0, 0))]"
      ],
      "transaction": {
        "from": "0x8ffa18f05056458dbfb2f7a122f185878b2d6e2f",
        "to": "0x52e9c73815f8e4e246473b814d9e5c3cb0e8ff3e",
        "gas": "0x686c4",
        "value": "0x0",
        "input": "0xe8a1da17000000000000000000000000000000000000000000000000000000000000004000000000000000000000000000000000000000000000000000000000000000600000000000000000000000000000000000000000000000000000000000000000000000000000000000000000000000000000000000000000000000000000000100000000000000000000000000000000000000000000000000000000000000200000000000000000000000000000000000000000000000005fbc02272fbf20b7000000000000000000000000000000000000000000000000000000000000012000000000000000000000000000000000000000000000000000000000000001a00000000000000000000000000000000000000000000000000000000000000000000000000000000000000000000000000000000000000000000000000000000000000000000000000000000000000000000000000000000000000000000000000000000000000000000000000000000000000000000000000000000000000000000000000000000000000000000000000000000000000000000000000000000000000000000000000000000000000000000000000000000000000000000000000000000000000000000000000000000000000000000000000000000000000001000000000000000000000000000000000000000000000000000000000000002000000000000000000000000000000000000000000000000000000000000000200000000000000000000000009eb5f70340e4cca65cedf46b758faf2658dd647400000000000000000000000000000000000000000000000000000000000000200000000000000000000000005c93a030c60bdaba4c410ec5c28cebd391f53070",
        "nonce": "0x9d",
        "chainId": "0xaa36a7"
      },
      "additionalContracts": [],
      "isFixedGasLimit": false
    }
  ],
  "receipts": [
    {
      "status": "0x1",
      "cumulativeGasUsed": "0x2daab1a",
      "logs": [
        {
          "address": "0x52e9c73815f8e4e246473b814d9e5c3cb0e8ff3e",
          "topics": [
            "0x7d628c9a1796743d365ab521a8b2a4686e419b3269919dc9145ea2ce853b54ea",
            "0x0000000000000000000000000000000000000000000000005fbc02272fbf20b7"
          ],
          "data": "0x000000000000000000000000000000000000000000000000000000000000002000000000000000000000000000000000000000000000000000000000000000200000000000000000000000009eb5f70340e4cca65cedf46b758faf2658dd6474",
          "blockHash": "0x3a8e762f03d6c49a40f747a6cc0128a9ab4c7c27e04031f424136e4f603c8d13",
          "blockNumber": "0x858369",
          "blockTimestamp": "0x6872b14c",
          "transactionHash": "0x5153be1ea3877f0424c9f105bfcc9579167b5903ad499a6bb6ac5fa7d2282713",
          "transactionIndex": "0x97",
          "logIndex": "0x1486",
          "removed": false
        },
        {
          "address": "0x52e9c73815f8e4e246473b814d9e5c3cb0e8ff3e",
          "topics": [
            "0x8d340f17e19058004c20453540862a9c62778504476f6756755cb33bcd6c38c2"
          ],
          "data": "0x0000000000000000000000000000000000000000000000005fbc02272fbf20b7000000000000000000000000000000000000000000000000000000000000010000000000000000000000000000000000000000000000000000000000000000000000000000000000000000000000000000000000000000000000000000000000000000000000000000000000000000000000000000000000000000000000000000000000000000000000000000000000000000000000000000000000000000000000000000000000000000000000000000000000000000000000000000000000000000000000000000000000000000000000000000000000000000000000000000000000000000000000000000000000000000000000000000000000000000200000000000000000000000005c93a030c60bdaba4c410ec5c28cebd391f53070",
          "blockHash": "0x3a8e762f03d6c49a40f747a6cc0128a9ab4c7c27e04031f424136e4f603c8d13",
          "blockNumber": "0x858369",
          "blockTimestamp": "0x6872b14c",
          "transactionHash": "0x5153be1ea3877f0424c9f105bfcc9579167b5903ad499a6bb6ac5fa7d2282713",
          "transactionIndex": "0x97",
          "logIndex": "0x1487",
          "removed": false
        }
      ],
      "logsBloom": "0x00000000000000400000000000000000000000000000000000000000000000000000000000000000000000000000000000000000000000000004000000000004000000000000000000000000040000000000000000000000000000000000000000000000000000000000000000001040000000000000000000000000000000400000000000080000000000000000000000000000000000000000000000000000000000000000008000000000000000000000000000000000000000000000000000000000000020000000000000000000000000000000000000000000000000000000000000000000000000000000000000000000008000000100000000000000",
      "type": "0x2",
      "transactionHash": "0x5153be1ea3877f0424c9f105bfcc9579167b5903ad499a6bb6ac5fa7d2282713",
      "transactionIndex": "0x97",
      "blockHash": "0x3a8e762f03d6c49a40f747a6cc0128a9ab4c7c27e04031f424136e4f603c8d13",
      "blockNumber": "0x858369",
      "gasUsed": "0x4b99c",
      "effectiveGasPrice": "0x39bd058a",
      "from": "0x8ffa18f05056458dbfb2f7a122f185878b2d6e2f",
      "to": "0x52e9c73815f8e4e246473b814d9e5c3cb0e8ff3e",
      "contractAddress": null
    }
  ],
  "libraries": [],
  "pending": [],
  "returns": {},
  "timestamp": 1752346956,
  "chain": 11155111,
  "commit": "a8d5c7c"
}