{
  "transactions": [
    {
      "hash": "0x469208c0910895b06d8e5e2a1ee178477a21f8538a8bfe450ae310c3bb315292",
      "transactionType": "CALL",
      "contractName": null,
      "contractAddress": "0xc5945a7dd09265a70969b56dd9ad9381eba5bec1",
      "function": "applyChainUpdates(uint64[],(uint64,bytes[],bytes,(bool,uint128,uint128),(bool,uint128,uint128))[])",
      "arguments": [
        "[]",
        "[(6898391096552792247, [0x0000000000000000000000000e535007a3185ff146795ec192318bb0cbaa4832], 0x000000000000000000000000443af7e974281af08bab4c7b1aee6605e0a4ea70, (false, 0, 0), (false, 0, 0))]"
      ],
      "transaction": {
        "from": "0x8ffa18f05056458dbfb2f7a122f185878b2d6e2f",
        "to": "0xc5945a7dd09265a70969b56dd9ad9381eba5bec1",
        "gas": "0x686c4",
        "value": "0x0",
        "input": "0xe8a1da17000000000000000000000000000000000000000000000000000000000000004000000000000000000000000000000000000000000000000000000000000000600000000000000000000000000000000000000000000000000000000000000000000000000000000000000000000000000000000000000000000000000000000100000000000000000000000000000000000000000000000000000000000000200000000000000000000000000000000000000000000000005fbc02272fbf20b7000000000000000000000000000000000000000000000000000000000000012000000000000000000000000000000000000000000000000000000000000001a00000000000000000000000000000000000000000000000000000000000000000000000000000000000000000000000000000000000000000000000000000000000000000000000000000000000000000000000000000000000000000000000000000000000000000000000000000000000000000000000000000000000000000000000000000000000000000000000000000000000000000000000000000000000000000000000000000000000000000000000000000000000000000000000000000000000000000000000000000000000000000000000000000000000000001000000000000000000000000000000000000000000000000000000000000002000000000000000000000000000000000000000000000000000000000000000200000000000000000000000000e535007a3185ff146795ec192318bb0cbaa48320000000000000000000000000000000000000000000000000000000000000020000000000000000000000000443af7e974281af08bab4c7b1aee6605e0a4ea70",
        "nonce": "0x47",
        "chainId": "0xaa36a7"
      },
      "additionalContracts": [],
      "isFixedGasLimit": false
    }
  ],
  "receipts": [
    {
      "status": "0x1",
      "cumulativeGasUsed": "0x1955053",
      "logs": [
        {
          "address": "0xc5945a7dd09265a70969b56dd9ad9381eba5bec1",
          "topics": [
            "0x7d628c9a1796743d365ab521a8b2a4686e419b3269919dc9145ea2ce853b54ea",
            "0x0000000000000000000000000000000000000000000000005fbc02272fbf20b7"
          ],
          "data": "0x000000000000000000000000000000000000000000000000000000000000002000000000000000000000000000000000000000000000000000000000000000200000000000000000000000000e535007a3185ff146795ec192318bb0cbaa4832",
          "blockHash": "0x612ef68253b928a297984264a1f1761586dea6a8963d36dc0fcba8acf6c0a70c",
          "blockNumber": "0x856052",
          "blockTimestamp": "0x68710b9c",
          "transactionHash": "0x469208c0910895b06d8e5e2a1ee178477a21f8538a8bfe450ae310c3bb315292",
          "transactionIndex": "0xc0",
          "logIndex": "0x1a5",
          "removed": false
        },
        {
          "address": "0xc5945a7dd09265a70969b56dd9ad9381eba5bec1",
          "topics": [
            "0x8d340f17e19058004c20453540862a9c62778504476f6756755cb33bcd6c38c2"
          ],
          "data": "0x0000000000000000000000000000000000000000000000005fbc02272fbf20b700000000000000000000000000000000000000000000000000000000000001000000000000000000000000000000000000000000000000000000000000000000000000000000000000000000000000000000000000000000000000000000000000000000000000000000000000000000000000000000000000000000000000000000000000000000000000000000000000000000000000000000000000000000000000000000000000000000000000000000000000000000000000000000000000000000000000000000000000000000000000000000000000000000000000000000000000000000000000000000000000000000000000000000000000000020000000000000000000000000443af7e974281af08bab4c7b1aee6605e0a4ea70",
          "blockHash": "0x612ef68253b928a297984264a1f1761586dea6a8963d36dc0fcba8acf6c0a70c",
          "blockNumber": "0x856052",
          "blockTimestamp": "0x68710b9c",
          "transactionHash": "0x469208c0910895b06d8e5e2a1ee178477a21f8538a8bfe450ae310c3bb315292",
          "transactionIndex": "0xc0",
          "logIndex": "0x1a6",
          "removed": false
        }
      ],
      "logsBloom": "0x00000000000000400000000000000000000000000000000000000000000000000000000000000000000000000000000000000000000000000004000000000004000000000000000000000000040000000000200000000000000000000000000000000000000000000000000000000040000000000000000000000000000000400000000000400000000000000000000000000000000000000000000000000000000000000000008000000000000000000000000000000000000000000000000000000000000000000000000000000000000000000000000000000000000000000000000000000000000000000000000000000000008000800100000000000000",
      "type": "0x2",
      "transactionHash": "0x469208c0910895b06d8e5e2a1ee178477a21f8538a8bfe450ae310c3bb315292",
      "transactionIndex": "0xc0",
      "blockHash": "0x612ef68253b928a297984264a1f1761586dea6a8963d36dc0fcba8acf6c0a70c",
      "blockNumber": "0x856052",
      "gasUsed": "0x4b99c",
      "effectiveGasPrice": "0x297d83",
      "from": "0x8ffa18f05056458dbfb2f7a122f185878b2d6e2f",
      "to": "0xc5945a7dd09265a70969b56dd9ad9381eba5bec1",
      "contractAddress": null
    }
  ],
  "libraries": [],
  "pending": [],
  "returns": {},
  "timestamp": 1752239006,
  "chain": 11155111,
  "commit": "a8d5c7c"
}