{
  "transactions": [
    {
      "hash": "0x38127ccc0e65d0e1b66163c3a25b6268d7fe010805a2a92ccc5858a0d8f76ab8",
      "transactionType": "CALL",
      "contractName": null,
      "contractAddress": "0xa8e0abd01d210be5f1544375b0628f8d0d8008d0",
      "function": "applyChainUpdates(uint64[],(uint64,bytes[],bytes,(bool,uint128,uint128),(bool,uint128,uint128))[])",
      "arguments": [
        "[]",
        "[(6898391096552792247, [0x000000000000000000000000e35bf032f4e159f781b109564400445ba1a8e416], 0x0000000000000000000000001cdc552c3f60301486599fa43e7223223b3ea741, (false, 0, 0), (false, 0, 0))]"
      ],
      "transaction": {
        "from": "0x8ffa18f05056458dbfb2f7a122f185878b2d6e2f",
        "to": "0xa8e0abd01d210be5f1544375b0628f8d0d8008d0",
        "gas": "0x686b5",
        "value": "0x0",
        "input": "0xe8a1da17000000000000000000000000000000000000000000000000000000000000004000000000000000000000000000000000000000000000000000000000000000600000000000000000000000000000000000000000000000000000000000000000000000000000000000000000000000000000000000000000000000000000000100000000000000000000000000000000000000000000000000000000000000200000000000000000000000000000000000000000000000005fbc02272fbf20b7000000000000000000000000000000000000000000000000000000000000012000000000000000000000000000000000000000000000000000000000000001a0000000000000000000000000000000000000000000000000000000000000000000000000000000000000000000000000000000000000000000000000000000000000000000000000000000000000000000000000000000000000000000000000000000000000000000000000000000000000000000000000000000000000000000000000000000000000000000000000000000000000000000000000000000000000000000000000000000000000000000000000000000000000000000000000000000000000000000000000000000000000000000000000000000000000000100000000000000000000000000000000000000000000000000000000000000200000000000000000000000000000000000000000000000000000000000000020000000000000000000000000e35bf032f4e159f781b109564400445ba1a8e41600000000000000000000000000000000000000000000000000000000000000200000000000000000000000001cdc552c3f60301486599fa43e7223223b3ea741",
        "nonce": "0x78",
        "chainId": "0xaa36a7"
      },
      "additionalContracts": [],
      "isFixedGasLimit": false
    }
  ],
  "receipts": [
    {
      "status": "0x1",
      "cumulativeGasUsed": "0x2f73d33",
      "logs": [
        {
          "address": "0xa8e0abd01d210be5f1544375b0628f8d0d8008d0",
          "topics": [
            "0x7d628c9a1796743d365ab521a8b2a4686e419b3269919dc9145ea2ce853b54ea",
            "0x0000000000000000000000000000000000000000000000005fbc02272fbf20b7"
          ],
          "data": "0x00000000000000000000000000000000000000000000000000000000000000200000000000000000000000000000000000000000000000000000000000000020000000000000000000000000e35bf032f4e159f781b109564400445ba1a8e416",
          "blockHash": "0xb4ad0611c9459e19efa300b4b98d7b5f29fcfc28d23edeb9a81ade3e3bd9f719",
          "blockNumber": "0x857a98",
          "blockTimestamp": "0x68724744",
          "transactionHash": "0x38127ccc0e65d0e1b66163c3a25b6268d7fe010805a2a92ccc5858a0d8f76ab8",
          "transactionIndex": "0x1a7",
          "logIndex": "0x301",
          "removed": false
        },
        {
          "address": "0xa8e0abd01d210be5f1544375b0628f8d0d8008d0",
          "topics": [
            "0x8d340f17e19058004c20453540862a9c62778504476f6756755cb33bcd6c38c2"
          ],
          "data": "0x0000000000000000000000000000000000000000000000005fbc02272fbf20b7000000000000000000000000000000000000000000000000000000000000010000000000000000000000000000000000000000000000000000000000000000000000000000000000000000000000000000000000000000000000000000000000000000000000000000000000000000000000000000000000000000000000000000000000000000000000000000000000000000000000000000000000000000000000000000000000000000000000000000000000000000000000000000000000000000000000000000000000000000000000000000000000000000000000000000000000000000000000000000000000000000000000000000000000000000200000000000000000000000001cdc552c3f60301486599fa43e7223223b3ea741",
          "blockHash": "0xb4ad0611c9459e19efa300b4b98d7b5f29fcfc28d23edeb9a81ade3e3bd9f719",
          "blockNumber": "0x857a98",
          "blockTimestamp": "0x68724744",
          "transactionHash": "0x38127ccc0e65d0e1b66163c3a25b6268d7fe010805a2a92ccc5858a0d8f76ab8",
          "transactionIndex": "0x1a7",
          "logIndex": "0x302",
          "removed": false
        }
      ],
      "logsBloom": "0x00000000000000400000000000000000000000000000000000000000000000000000000000000000000000000000000000000000000000000004004000000004000000000000000000000000040000000000000000000000000000000000000000000000000000000000000000000040000000000000000000000000000000400000000000000000000000000000000000000000000000000000000000000000000000000000008000000000010000000008000000000000000000000000000000000000000000000000000000000000000000000000000000000000000000000000000000000000000000000000000000000000008000000100000000000000",
      "type": "0x2",
      "transactionHash": "0x38127ccc0e65d0e1b66163c3a25b6268d7fe010805a2a92ccc5858a0d8f76ab8",
      "transactionIndex": "0x1a7",
      "blockHash": "0xb4ad0611c9459e19efa300b4b98d7b5f29fcfc28d23edeb9a81ade3e3bd9f719",
      "blockNumber": "0x857a98",
      "gasUsed": "0x4b990",
      "effectiveGasPrice": "0x62eba39c",
      "from": "0x8ffa18f05056458dbfb2f7a122f185878b2d6e2f",
      "to": "0xa8e0abd01d210be5f1544375b0628f8d0d8008d0",
      "contractAddress": null
    }
  ],
  "libraries": [],
  "pending": [],
  "returns": {},
  "timestamp": 1752319814,
  "chain": 11155111,
  "commit": "a8d5c7c"
}