{
  "transactions": [
    {
      "hash": "0x5aa9a9cc9f50daba7c8db0c8484f5a645c27c03114271e80f918d03e116fd136",
      "transactionType": "CALL",
      "contractName": null,
      "contractAddress": "0x8202364be6e2616d0b8ad017fa89d309cc321f7a",
      "function": "applyChainUpdates(uint64[],(uint64,bytes[],bytes,(bool,uint128,uint128),(bool,uint128,uint128))[])",
      "arguments": [
        "[]",
        "[(6898391096552792247, [0x00000000000000000000000039eef58410b6e339c48664624f311faea7304e2f], 0x000000000000000000000000834fb5f21dc6f48b433841fd81037d085d6ffb64, (false, 0, 0), (false, 0, 0))]"
      ],
      "transaction": {
        "from": "0x8ffa18f05056458dbfb2f7a122f185878b2d6e2f",
        "to": "0x8202364be6e2616d0b8ad017fa89d309cc321f7a",
        "gas": "0x686c4",
        "value": "0x0",
        "input": "0xe8a1da17000000000000000000000000000000000000000000000000000000000000004000000000000000000000000000000000000000000000000000000000000000600000000000000000000000000000000000000000000000000000000000000000000000000000000000000000000000000000000000000000000000000000000100000000000000000000000000000000000000000000000000000000000000200000000000000000000000000000000000000000000000005fbc02272fbf20b7000000000000000000000000000000000000000000000000000000000000012000000000000000000000000000000000000000000000000000000000000001a000000000000000000000000000000000000000000000000000000000000000000000000000000000000000000000000000000000000000000000000000000000000000000000000000000000000000000000000000000000000000000000000000000000000000000000000000000000000000000000000000000000000000000000000000000000000000000000000000000000000000000000000000000000000000000000000000000000000000000000000000000000000000000000000000000000000000000000000000000000000000000000000000000000000000010000000000000000000000000000000000000000000000000000000000000020000000000000000000000000000000000000000000000000000000000000002000000000000000000000000039eef58410b6e339c48664624f311faea7304e2f0000000000000000000000000000000000000000000000000000000000000020000000000000000000000000834fb5f21dc6f48b433841fd81037d085d6ffb64",
        "nonce": "0x50",
        "chainId": "0xaa36a7"
      },
      "additionalContracts": [],
      "isFixedGasLimit": false
    }
  ],
  "receipts": [
    {
      "status": "0x1",
      "cumulativeGasUsed": "0x12c9be4",
      "logs": [
        {
          "address": "0x8202364be6e2616d0b8ad017fa89d309cc321f7a",
          "topics": [
            "0x7d628c9a1796743d365ab521a8b2a4686e419b3269919dc9145ea2ce853b54ea",
            "0x0000000000000000000000000000000000000000000000005fbc02272fbf20b7"
          ],
          "data": "0x0000000000000000000000000000000000000000000000000000000000000020000000000000000000000000000000000000000000000000000000000000002000000000000000000000000039eef58410b6e339c48664624f311faea7304e2f",
          "blockHash": "0xae30f41287126ce3f1e1ee6d3bcdfedd02e448d4c549230d2564544895d16831",
          "blockNumber": "0x8560e7",
          "blockTimestamp": "0x68711298",
          "transactionHash": "0x5aa9a9cc9f50daba7c8db0c8484f5a645c27c03114271e80f918d03e116fd136",
          "transactionIndex": "0x116",
          "logIndex": "0x17e",
          "removed": false
        },
        {
          "address": "0x8202364be6e2616d0b8ad017fa89d309cc321f7a",
          "topics": [
            "0x8d340f17e19058004c20453540862a9c62778504476f6756755cb33bcd6c38c2"
          ],
          "data": "0x0000000000000000000000000000000000000000000000005fbc02272fbf20b700000000000000000000000000000000000000000000000000000000000001000000000000000000000000000000000000000000000000000000000000000000000000000000000000000000000000000000000000000000000000000000000000000000000000000000000000000000000000000000000000000000000000000000000000000000000000000000000000000000000000000000000000000000000000000000000000000000000000000000000000000000000000000000000000000000000000000000000000000000000000000000000000000000000000000000000000000000000000000000000000000000000000000000000000000020000000000000000000000000834fb5f21dc6f48b433841fd81037d085d6ffb64",
          "blockHash": "0xae30f41287126ce3f1e1ee6d3bcdfedd02e448d4c549230d2564544895d16831",
          "blockNumber": "0x8560e7",
          "blockTimestamp": "0x68711298",
          "transactionHash": "0x5aa9a9cc9f50daba7c8db0c8484f5a645c27c03114271e80f918d03e116fd136",
          "transactionIndex": "0x116",
          "logIndex": "0x17f",
          "removed": false
        }
      ],
      "logsBloom": "0x00000000000000400000000000000000000000000000000000000000000000000000000000000000000000000000000000000000000000000004000000000004000000000000000000000000040000000000000000000000000000000000000000000000000000000000000000000040000000000000000000000010000000400000000000000000000000000000000000000000000000004000000000000000000000000000008000000000000000000000020000000000000000000000000000000000000000000000000000000000000000000000000000000000000000000000000000000000000000000000000000000000008000000100000000000000",
      "type": "0x2",
      "transactionHash": "0x5aa9a9cc9f50daba7c8db0c8484f5a645c27c03114271e80f918d03e116fd136",
      "transactionIndex": "0x116",
      "blockHash": "0xae30f41287126ce3f1e1ee6d3bcdfedd02e448d4c549230d2564544895d16831",
      "blockNumber": "0x8560e7",
      "gasUsed": "0x4b99c",
      "effectiveGasPrice": "0x1ab69d",
      "from": "0x8ffa18f05056458dbfb2f7a122f185878b2d6e2f",
      "to": "0x8202364be6e2616d0b8ad017fa89d309cc321f7a",
      "contractAddress": null
    }
  ],
  "libraries": [],
  "pending": [],
  "returns": {},
  "timestamp": 1752240794,
  "chain": 11155111,
  "commit": "a8d5c7c"
}