{
  "transactions": [
    {
      "hash": "0xb76b89af6e68c5c03493613af685044d44a7a10965622af9f52d4da08f6fe581",
      "transactionType": "CALL",
      "contractName": null,
      "contractAddress": "0x76c929ad2ec58203e378ea428bcfac02b28d3b00",
      "function": "applyChainUpdates(uint64[],(uint64,bytes[],bytes,(bool,uint128,uint128),(bool,uint128,uint128))[])",
      "arguments": [
        "[]",
        "[(6898391096552792247, [0x000000000000000000000000de09ac9ac2ff14f0e77b0d1fc25b214afa4f436b], 0x0000000000000000000000000403177d81b23805f861f36fe76d6af8d8061000, (false, 0, 0), (false, 0, 0))]"
      ],
      "transaction": {
        "from": "0x8ffa18f05056458dbfb2f7a122f185878b2d6e2f",
        "to": "0x76c929ad2ec58203e378ea428bcfac02b28d3b00",
        "gas": "0x686b5",
        "value": "0x0",
        "input": "0xe8a1da17000000000000000000000000000000000000000000000000000000000000004000000000000000000000000000000000000000000000000000000000000000600000000000000000000000000000000000000000000000000000000000000000000000000000000000000000000000000000000000000000000000000000000100000000000000000000000000000000000000000000000000000000000000200000000000000000000000000000000000000000000000005fbc02272fbf20b7000000000000000000000000000000000000000000000000000000000000012000000000000000000000000000000000000000000000000000000000000001a0000000000000000000000000000000000000000000000000000000000000000000000000000000000000000000000000000000000000000000000000000000000000000000000000000000000000000000000000000000000000000000000000000000000000000000000000000000000000000000000000000000000000000000000000000000000000000000000000000000000000000000000000000000000000000000000000000000000000000000000000000000000000000000000000000000000000000000000000000000000000000000000000000000000000000100000000000000000000000000000000000000000000000000000000000000200000000000000000000000000000000000000000000000000000000000000020000000000000000000000000de09ac9ac2ff14f0e77b0d1fc25b214afa4f436b00000000000000000000000000000000000000000000000000000000000000200000000000000000000000000403177d81b23805f861f36fe76d6af8d8061000",
        "nonce": "0xa7",
        "chainId": "0xaa36a7"
      },
      "additionalContracts": [],
      "isFixedGasLimit": false
    }
  ],
  "receipts": [
    {
      "status": "0x1",
      "cumulativeGasUsed": "0x2db37af",
      "logs": [
        {
          "address": "0x76c929ad2ec58203e378ea428bcfac02b28d3b00",
          "topics": [
            "0x7d628c9a1796743d365ab521a8b2a4686e419b3269919dc9145ea2ce853b54ea",
            "0x0000000000000000000000000000000000000000000000005fbc02272fbf20b7"
          ],
          "data": "0x00000000000000000000000000000000000000000000000000000000000000200000000000000000000000000000000000000000000000000000000000000020000000000000000000000000de09ac9ac2ff14f0e77b0d1fc25b214afa4f436b",
          "blockHash": "0x45471549f864cd6f69799aefb213429e499f954df8f858f85f20ab8c28abae3d",
          "blockNumber": "0x85839c",
          "blockTimestamp": "0x6872b3b0",
          "transactionHash": "0xb76b89af6e68c5c03493613af685044d44a7a10965622af9f52d4da08f6fe581",
          "transactionIndex": "0xb8",
          "logIndex": "0x1497",
          "removed": false
        },
        {
          "address": "0x76c929ad2ec58203e378ea428bcfac02b28d3b00",
          "topics": [
            "0x8d340f17e19058004c20453540862a9c62778504476f6756755cb33bcd6c38c2"
          ],
          "data": "0x0000000000000000000000000000000000000000000000005fbc02272fbf20b7000000000000000000000000000000000000000000000000000000000000010000000000000000000000000000000000000000000000000000000000000000000000000000000000000000000000000000000000000000000000000000000000000000000000000000000000000000000000000000000000000000000000000000000000000000000000000000000000000000000000000000000000000000000000000000000000000000000000000000000000000000000000000000000000000000000000000000000000000000000000000000000000000000000000000000000000000000000000000000000000000000000000000000000000000000200000000000000000000000000403177d81b23805f861f36fe76d6af8d8061000",
          "blockHash": "0x45471549f864cd6f69799aefb213429e499f954df8f858f85f20ab8c28abae3d",
          "blockNumber": "0x85839c",
          "blockTimestamp": "0x6872b3b0",
          "transactionHash": "0xb76b89af6e68c5c03493613af685044d44a7a10965622af9f52d4da08f6fe581",
          "transactionIndex": "0xb8",
          "logIndex": "0x1498",
          "removed": false
        }
      ],
      "logsBloom": "0x00000000000000400000000000000000000000000000000000000000000000000000000000000000000000000000000000000000000000000004000000000004000000000000000000000000040000000000000000000000000000000000000000000000000000000000000000000040000000000000000000000000000000400000020000000000000000000000000000000000000000000000000000000000000000000000008000000000000000000000000000000040000000000000000000000000000000000000000000000000000000000000000000000000000000000000000000000000000000000000000000000200008000000100000000000000",
      "type": "0x2",
      "transactionHash": "0xb76b89af6e68c5c03493613af685044d44a7a10965622af9f52d4da08f6fe581",
      "transactionIndex": "0xb8",
      "blockHash": "0x45471549f864cd6f69799aefb213429e499f954df8f858f85f20ab8c28abae3d",
      "blockNumber": "0x85839c",
      "gasUsed": "0x4b990",
      "effectiveGasPrice": "0x39f543a2",
      "from": "0x8ffa18f05056458dbfb2f7a122f185878b2d6e2f",
      "to": "0x76c929ad2ec58203e378ea428bcfac02b28d3b00",
      "contractAddress": null
    }
  ],
  "libraries": [],
  "pending": [],
  "returns": {},
  "timestamp": 1752347569,
  "chain": 11155111,
  "commit": "a8d5c7c"
}