{
  "transactions": [
    {
      "hash": "0xa27738b1daeb49a33d1db2bf0da4c17bf6b679c0620bc36ba9f64e8d38806f10",
      "transactionType": "CALL",
      "contractName": null,
      "contractAddress": "0xcd88367bfb9c0ccd6de689f1761c6f074fe312a0",
      "function": "applyChainUpdates(uint64[],(uint64,bytes[],bytes,(bool,uint128,uint128),(bool,uint128,uint128))[])",
      "arguments": [
        "[]",
        "[(6898391096552792247, [0x0000000000000000000000002842a0e1bfae27973d18f093ff1d5f3299f23026], 0x000000000000000000000000cf4cdbf84ab726d26699b9fcdadb3bbfbd003728, (false, 0, 0), (false, 0, 0))]"
      ],
      "transaction": {
        "from": "0x8ffa18f05056458dbfb2f7a122f185878b2d6e2f",
        "to": "0xcd88367bfb9c0ccd6de689f1761c6f074fe312a0",
        "gas": "0x686b5",
        "value": "0x0",
        "input": "0xe8a1da17000000000000000000000000000000000000000000000000000000000000004000000000000000000000000000000000000000000000000000000000000000600000000000000000000000000000000000000000000000000000000000000000000000000000000000000000000000000000000000000000000000000000000100000000000000000000000000000000000000000000000000000000000000200000000000000000000000000000000000000000000000005fbc02272fbf20b7000000000000000000000000000000000000000000000000000000000000012000000000000000000000000000000000000000000000000000000000000001a00000000000000000000000000000000000000000000000000000000000000000000000000000000000000000000000000000000000000000000000000000000000000000000000000000000000000000000000000000000000000000000000000000000000000000000000000000000000000000000000000000000000000000000000000000000000000000000000000000000000000000000000000000000000000000000000000000000000000000000000000000000000000000000000000000000000000000000000000000000000000000000000000000000000000001000000000000000000000000000000000000000000000000000000000000002000000000000000000000000000000000000000000000000000000000000000200000000000000000000000002842a0e1bfae27973d18f093ff1d5f3299f230260000000000000000000000000000000000000000000000000000000000000020000000000000000000000000cf4cdbf84ab726d26699b9fcdadb3bbfbd003728",
        "nonce": "0x5a",
        "chainId": "0xaa36a7"
      },
      "additionalContracts": [],
      "isFixedGasLimit": false
    }
  ],
  "receipts": [
    {
      "status": "0x1",
      "cumulativeGasUsed": "0x2a067cb",
      "logs": [
        {
          "address": "0xcd88367bfb9c0ccd6de689f1761c6f074fe312a0",
          "topics": [
            "0x7d628c9a1796743d365ab521a8b2a4686e419b3269919dc9145ea2ce853b54ea",
            "0x0000000000000000000000000000000000000000000000005fbc02272fbf20b7"
          ],
          "data": "0x000000000000000000000000000000000000000000000000000000000000002000000000000000000000000000000000000000000000000000000000000000200000000000000000000000002842a0e1bfae27973d18f093ff1d5f3299f23026",
          "blockHash": "0xc7cd555e286920ea6f4926b354e0a12fe3c0e99b35f5a5338389059907ce749c",
          "blockNumber": "0x8568c5",
          "blockTimestamp": "0x6871710c",
          "transactionHash": "0xa27738b1daeb49a33d1db2bf0da4c17bf6b679c0620bc36ba9f64e8d38806f10",
          "transactionIndex": "0xf8",
          "logIndex": "0x27b",
          "removed": false
        },
        {
          "address": "0xcd88367bfb9c0ccd6de689f1761c6f074fe312a0",
          "topics": [
            "0x8d340f17e19058004c20453540862a9c62778504476f6756755cb33bcd6c38c2"
          ],
          "data": "0x0000000000000000000000000000000000000000000000005fbc02272fbf20b700000000000000000000000000000000000000000000000000000000000001000000000000000000000000000000000000000000000000000000000000000000000000000000000000000000000000000000000000000000000000000000000000000000000000000000000000000000000000000000000000000000000000000000000000000000000000000000000000000000000000000000000000000000000000000000000000000000000000000000000000000000000000000000000000000000000000000000000000000000000000000000000000000000000000000000000000000000000000000000000000000000000000000000000000000020000000000000000000000000cf4cdbf84ab726d26699b9fcdadb3bbfbd003728",
          "blockHash": "0xc7cd555e286920ea6f4926b354e0a12fe3c0e99b35f5a5338389059907ce749c",
          "blockNumber": "0x8568c5",
          "blockTimestamp": "0x6871710c",
          "transactionHash": "0xa27738b1daeb49a33d1db2bf0da4c17bf6b679c0620bc36ba9f64e8d38806f10",
          "transactionIndex": "0xf8",
          "logIndex": "0x27c",
          "removed": false
        }
      ],
      "logsBloom": "0x00000000000000400000000000000000000000000000000000000004000000000000800000000000000000000000000000000000000000000004000000000004000000000000000000000000040000000000000020000000000000000000000000000000000000000000000000000040000000000000000000000000000000400000000000000000000000000000000000000000000000000000000000000000000000000000008000000000000000000000000000000000000000000000000000000000000000000000000000000000000000000000000000000000000000000000000000000000000000000000000000000000008000000100000000000000",
      "type": "0x2",
      "transactionHash": "0xa27738b1daeb49a33d1db2bf0da4c17bf6b679c0620bc36ba9f64e8d38806f10",
      "transactionIndex": "0xf8",
      "blockHash": "0xc7cd555e286920ea6f4926b354e0a12fe3c0e99b35f5a5338389059907ce749c",
      "blockNumber": "0x8568c5",
      "gasUsed": "0x4b990",
      "effectiveGasPrice": "0x12e3ec1",
      "from": "0x8ffa18f05056458dbfb2f7a122f185878b2d6e2f",
      "to": "0xcd88367bfb9c0ccd6de689f1761c6f074fe312a0",
      "contractAddress": null
    }
  ],
  "libraries": [],
  "pending": [],
  "returns": {},
  "timestamp": 1752264973,
  "chain": 11155111,
  "commit": "a8d5c7c"
}