{
  "transactions": [
    {
      "hash": "0x3626d24fbdaff92019425a9530a4c492a859980c86ef3ba2a4693ba13ea8332f",
      "transactionType": "CALL",
      "contractName": null,
      "contractAddress": "0x6692e6143f7579dff64adc2e105534fcff550e24",
      "function": "applyChainUpdates(uint64[],(uint64,bytes[],bytes,(bool,uint128,uint128),(bool,uint128,uint128))[])",
      "arguments": [
        "[]",
        "[(6898391096552792247, [0x0000000000000000000000007dd70e425f353e6eef4ccee4a20000121478ae56], 0x000000000000000000000000b35834e0c8f5f66bb349af876b663f4c22f540a0, (false, 0, 0), (false, 0, 0))]"
      ],
      "transaction": {
        "from": "0x8ffa18f05056458dbfb2f7a122f185878b2d6e2f",
        "to": "0x6692e6143f7579dff64adc2e105534fcff550e24",
        "gas": "0x686a4",
        "value": "0x0",
        "input": "0xe8a1da17000000000000000000000000000000000000000000000000000000000000004000000000000000000000000000000000000000000000000000000000000000600000000000000000000000000000000000000000000000000000000000000000000000000000000000000000000000000000000000000000000000000000000100000000000000000000000000000000000000000000000000000000000000200000000000000000000000000000000000000000000000005fbc02272fbf20b7000000000000000000000000000000000000000000000000000000000000012000000000000000000000000000000000000000000000000000000000000001a00000000000000000000000000000000000000000000000000000000000000000000000000000000000000000000000000000000000000000000000000000000000000000000000000000000000000000000000000000000000000000000000000000000000000000000000000000000000000000000000000000000000000000000000000000000000000000000000000000000000000000000000000000000000000000000000000000000000000000000000000000000000000000000000000000000000000000000000000000000000000000000000000000000000000001000000000000000000000000000000000000000000000000000000000000002000000000000000000000000000000000000000000000000000000000000000200000000000000000000000007dd70e425f353e6eef4ccee4a20000121478ae560000000000000000000000000000000000000000000000000000000000000020000000000000000000000000b35834e0c8f5f66bb349af876b663f4c22f540a0",
        "nonce": "0x8c",
        "chainId": "0xaa36a7"
      },
      "additionalContracts": [],
      "isFixedGasLimit": false
    }
  ],
  "receipts": [
    {
      "status": "0x1",
      "cumulativeGasUsed": "0x12602e7",
      "logs": [
        {
          "address": "0x6692e6143f7579dff64adc2e105534fcff550e24",
          "topics": [
            "0x7d628c9a1796743d365ab521a8b2a4686e419b3269919dc9145ea2ce853b54ea",
            "0x0000000000000000000000000000000000000000000000005fbc02272fbf20b7"
          ],
          "data": "0x000000000000000000000000000000000000000000000000000000000000002000000000000000000000000000000000000000000000000000000000000000200000000000000000000000007dd70e425f353e6eef4ccee4a20000121478ae56",
          "blockHash": "0xcdb484d0cd14f1baf7f4f732608e992e6f45c90fd2662fd7c94bae76ab5ff240",
          "blockNumber": "0x857b3c",
          "blockTimestamp": "0x68724ef4",
          "transactionHash": "0x3626d24fbdaff92019425a9530a4c492a859980c86ef3ba2a4693ba13ea8332f",
          "transactionIndex": "0xa2",
          "logIndex": "0x145",
          "removed": false
        },
        {
          "address": "0x6692e6143f7579dff64adc2e105534fcff550e24",
          "topics": [
            "0x8d340f17e19058004c20453540862a9c62778504476f6756755cb33bcd6c38c2"
          ],
          "data": "0x0000000000000000000000000000000000000000000000005fbc02272fbf20b700000000000000000000000000000000000000000000000000000000000001000000000000000000000000000000000000000000000000000000000000000000000000000000000000000000000000000000000000000000000000000000000000000000000000000000000000000000000000000000000000000000000000000000000000000000000000000000000000000000000000000000000000000000000000000000000000000000000000000000000000000000000000000000000000000000000000000000000000000000000000000000000000000000000000000000000000000000000000000000000000000000000000000000000000000020000000000000000000000000b35834e0c8f5f66bb349af876b663f4c22f540a0",
          "blockHash": "0xcdb484d0cd14f1baf7f4f732608e992e6f45c90fd2662fd7c94bae76ab5ff240",
          "blockNumber": "0x857b3c",
          "blockTimestamp": "0x68724ef4",
          "transactionHash": "0x3626d24fbdaff92019425a9530a4c492a859980c86ef3ba2a4693ba13ea8332f",
          "transactionIndex": "0xa2",
          "logIndex": "0x146",
          "removed": false
        }
      ],
      "logsBloom": "0x00000000000000400000000000000010000000000000000000000000000000000000000000100000000000000000000000000000000000000004000000000004000000000000000000000000040000000000000000000000000000000000000000000000000000000000000000000040000000000000000000000000000000400000000000000000000000000000000000000000010000000000000000000000000000000000008000000000000000000000000000000000000000000000000000000000000000000000000000000000000000000000000000000000000000000000000000000000000000000000000000000000008000000100000000000000",
      "type": "0x2",
      "transactionHash": "0x3626d24fbdaff92019425a9530a4c492a859980c86ef3ba2a4693ba13ea8332f",
      "transactionIndex": "0xa2",
      "blockHash": "0xcdb484d0cd14f1baf7f4f732608e992e6f45c90fd2662fd7c94bae76ab5ff240",
      "blockNumber": "0x857b3c",
      "gasUsed": "0x4b984",
      "effectiveGasPrice": "0x3fa285f0",
      "from": "0x8ffa18f05056458dbfb2f7a122f185878b2d6e2f",
      "to": "0x6692e6143f7579dff64adc2e105534fcff550e24",
      "contractAddress": null
    }
  ],
  "libraries": [],
  "pending": [],
  "returns": {},
  "timestamp": 1752321781,
  "chain": 11155111,
  "commit": "a8d5c7c"
}