{
  "transactions": [
    {
      "hash": "0x87e11285f7d3756b98d1ade6b4e6f825734ec3e458c88545e5be37d012b51809",
      "transactionType": "CALL",
      "contractName": null,
      "contractAddress": "0x21b3f52a9af0bb66c905750957062f2306e8f130",
      "function": "applyChainUpdates(uint64[],(uint64,bytes[],bytes,(bool,uint128,uint128),(bool,uint128,uint128))[])",
      "arguments": [
        "[]",
        "[(6898391096552792247, [0x000000000000000000000000a94d9d6cb487f86d70c3a4d80493f72d10d3c4c8], 0x000000000000000000000000776e74e2336df9b6d55ef2711d3406e0a56b172b, (false, 0, 0), (false, 0, 0))]"
      ],
      "transaction": {
        "from": "0x8ffa18f05056458dbfb2f7a122f185878b2d6e2f",
        "to": "0x21b3f52a9af0bb66c905750957062f2306e8f130",
        "gas": "0x686c4",
        "value": "0x0",
        "input": "0xe8a1da17000000000000000000000000000000000000000000000000000000000000004000000000000000000000000000000000000000000000000000000000000000600000000000000000000000000000000000000000000000000000000000000000000000000000000000000000000000000000000000000000000000000000000100000000000000000000000000000000000000000000000000000000000000200000000000000000000000000000000000000000000000005fbc02272fbf20b7000000000000000000000000000000000000000000000000000000000000012000000000000000000000000000000000000000000000000000000000000001a0000000000000000000000000000000000000000000000000000000000000000000000000000000000000000000000000000000000000000000000000000000000000000000000000000000000000000000000000000000000000000000000000000000000000000000000000000000000000000000000000000000000000000000000000000000000000000000000000000000000000000000000000000000000000000000000000000000000000000000000000000000000000000000000000000000000000000000000000000000000000000000000000000000000000000100000000000000000000000000000000000000000000000000000000000000200000000000000000000000000000000000000000000000000000000000000020000000000000000000000000a94d9d6cb487f86d70c3a4d80493f72d10d3c4c80000000000000000000000000000000000000000000000000000000000000020000000000000000000000000776e74e2336df9b6d55ef2711d3406e0a56b172b",
        "nonce": "0x82",
        "chainId": "0xaa36a7"
      },
      "additionalContracts": [],
      "isFixedGasLimit": false
    }
  ],
  "receipts": [
    {
      "status": "0x1",
      "cumulativeGasUsed": "0x102aee4",
      "logs": [
        {
          "address": "0x21b3f52a9af0bb66c905750957062f2306e8f130",
          "topics": [
            "0x7d628c9a1796743d365ab521a8b2a4686e419b3269919dc9145ea2ce853b54ea",
            "0x0000000000000000000000000000000000000000000000005fbc02272fbf20b7"
          ],
          "data": "0x00000000000000000000000000000000000000000000000000000000000000200000000000000000000000000000000000000000000000000000000000000020000000000000000000000000a94d9d6cb487f86d70c3a4d80493f72d10d3c4c8",
          "blockHash": "0xcd1021e688cb200cb283a178c72b9f357d217eb683f056d01a8e7dfebbdb50ca",
          "blockNumber": "0x857b0c",
          "blockTimestamp": "0x68724cb4",
          "transactionHash": "0x87e11285f7d3756b98d1ade6b4e6f825734ec3e458c88545e5be37d012b51809",
          "transactionIndex": "0xbb",
          "logIndex": "0x177",
          "removed": false
        },
        {
          "address": "0x21b3f52a9af0bb66c905750957062f2306e8f130",
          "topics": [
            "0x8d340f17e19058004c20453540862a9c62778504476f6756755cb33bcd6c38c2"
          ],
          "data": "0x0000000000000000000000000000000000000000000000005fbc02272fbf20b700000000000000000000000000000000000000000000000000000000000001000000000000000000000000000000000000000000000000000000000000000000000000000000000000000000000000000000000000000000000000000000000000000000000000000000000000000000000000000000000000000000000000000000000000000000000000000000000000000000000000000000000000000000000000000000000000000000000000000000000000000000000000000000000000000000000000000000000000000000000000000000000000000000000000000000000000000000000000000000000000000000000000000000000000000020000000000000000000000000776e74e2336df9b6d55ef2711d3406e0a56b172b",
          "blockHash": "0xcd1021e688cb200cb283a178c72b9f357d217eb683f056d01a8e7dfebbdb50ca",
          "blockNumber": "0x857b0c",
          "blockTimestamp": "0x68724cb4",
          "transactionHash": "0x87e11285f7d3756b98d1ade6b4e6f825734ec3e458c88545e5be37d012b51809",
          "transactionIndex": "0xbb",
          "logIndex": "0x178",
          "removed": false
        }
      ],
      "logsBloom": "0x00000000000000400000000000000000000000000000040000000000000000000000000000000000000000000000000000000000000000000004000000000004000000000000000000000000040000000000000000000000000000000000000000000000000000000000000000000040000000000000000000000000000000400000000000000000000000000000000000000000000000000000000000000000000000000000008000000000000000000000000000000000000000000010000000000000000000000000000000000000000000000000000000000000000000000000000000008000000000000000000000000000008000000100000000000000",
      "type": "0x2",
      "transactionHash": "0x87e11285f7d3756b98d1ade6b4e6f825734ec3e458c88545e5be37d012b51809",
      "transactionIndex": "0xbb",
      "blockHash": "0xcd1021e688cb200cb283a178c72b9f357d217eb683f056d01a8e7dfebbdb50ca",
      "blockNumber": "0x857b0c",
      "gasUsed": "0x4b99c",
      "effectiveGasPrice": "0x55defa4a",
      "from": "0x8ffa18f05056458dbfb2f7a122f185878b2d6e2f",
      "to": "0x21b3f52a9af0bb66c905750957062f2306e8f130",
      "contractAddress": null
    }
  ],
  "libraries": [],
  "pending": [],
  "returns": {},
  "timestamp": 1752321205,
  "chain": 11155111,
  "commit": "a8d5c7c"
}