{
  "transactions": [
    {
      "hash": "0x2a72eba3089e798eff6c19a57ecf6ee4a758261e7de97bddd73be2fbac080248",
      "transactionType": "CALL",
      "contractName": null,
      "contractAddress": "0x563472a6ced1608eddb94fc735471e8c92597ca5",
      "function": "applyChainUpdates(uint64[],(uint64,bytes[],bytes,(bool,uint128,uint128),(bool,uint128,uint128))[])",
      "arguments": [
        "[]",
        "[(6898391096552792247, [0x000000000000000000000000d1dad7b476cb0c38d7e8b7027f33e85b9991000b], 0x000000000000000000000000ff9105d2fc0ef3da982a30f0fd4b996c81a47bbc, (false, 0, 0), (false, 0, 0))]"
      ],
      "transaction": {
        "from": "0x8ffa18f05056458dbfb2f7a122f185878b2d6e2f",
        "to": "0x563472a6ced1608eddb94fc735471e8c92597ca5",
        "gas": "0x686b5",
        "value": "0x0",
        "input": "0xe8a1da17000000000000000000000000000000000000000000000000000000000000004000000000000000000000000000000000000000000000000000000000000000600000000000000000000000000000000000000000000000000000000000000000000000000000000000000000000000000000000000000000000000000000000100000000000000000000000000000000000000000000000000000000000000200000000000000000000000000000000000000000000000005fbc02272fbf20b7000000000000000000000000000000000000000000000000000000000000012000000000000000000000000000000000000000000000000000000000000001a0000000000000000000000000000000000000000000000000000000000000000000000000000000000000000000000000000000000000000000000000000000000000000000000000000000000000000000000000000000000000000000000000000000000000000000000000000000000000000000000000000000000000000000000000000000000000000000000000000000000000000000000000000000000000000000000000000000000000000000000000000000000000000000000000000000000000000000000000000000000000000000000000000000000000000100000000000000000000000000000000000000000000000000000000000000200000000000000000000000000000000000000000000000000000000000000020000000000000000000000000d1dad7b476cb0c38d7e8b7027f33e85b9991000b0000000000000000000000000000000000000000000000000000000000000020000000000000000000000000ff9105d2fc0ef3da982a30f0fd4b996c81a47bbc",
        "nonce": "0x64",
        "chainId": "0xaa36a7"
      },
      "additionalContracts": [],
      "isFixedGasLimit": false
    }
  ],
  "receipts": [
    {
      "status": "0x1",
      "cumulativeGasUsed": "0x2d89434",
      "logs": [
        {
          "address": "0x563472a6ced1608eddb94fc735471e8c92597ca5",
          "topics": [
            "0x7d628c9a1796743d365ab521a8b2a4686e419b3269919dc9145ea2ce853b54ea",
            "0x0000000000000000000000000000000000000000000000005fbc02272fbf20b7"
          ],
          "data": "0x00000000000000000000000000000000000000000000000000000000000000200000000000000000000000000000000000000000000000000000000000000020000000000000000000000000d1dad7b476cb0c38d7e8b7027f33e85b9991000b",
          "blockHash": "0x99d6a91bada1f6f7bd0bdead745014fa8b35d4141f7239f8a6726d3dae8286ea",
          "blockNumber": "0x857868",
          "blockTimestamp": "0x68722d04",
          "transactionHash": "0x2a72eba3089e798eff6c19a57ecf6ee4a758261e7de97bddd73be2fbac080248",
          "transactionIndex": "0xbc",
          "logIndex": "0x1491",
          "removed": false
        },
        {
          "address": "0x563472a6ced1608eddb94fc735471e8c92597ca5",
          "topics": [
            "0x8d340f17e19058004c20453540862a9c62778504476f6756755cb33bcd6c38c2"
          ],
          "data": "0x0000000000000000000000000000000000000000000000005fbc02272fbf20b700000000000000000000000000000000000000000000000000000000000001000000000000000000000000000000000000000000000000000000000000000000000000000000000000000000000000000000000000000000000000000000000000000000000000000000000000000000000000000000000000000000000000000000000000000000000000000000000000000000000000000000000000000000000000000000000000000000000000000000000000000000000000000000000000000000000000000000000000000000000000000000000000000000000000000000000000000000000000000000000000000000000000000000000000000020000000000000000000000000ff9105d2fc0ef3da982a30f0fd4b996c81a47bbc",
          "blockHash": "0x99d6a91bada1f6f7bd0bdead745014fa8b35d4141f7239f8a6726d3dae8286ea",
          "blockNumber": "0x857868",
          "blockTimestamp": "0x68722d04",
          "transactionHash": "0x2a72eba3089e798eff6c19a57ecf6ee4a758261e7de97bddd73be2fbac080248",
          "transactionIndex": "0xbc",
          "logIndex": "0x1492",
          "removed": false
        }
      ],
      "logsBloom": "0x00000000000000400000000000000000000000000000000000000000000000000000000000000000000000000000000800000000000000000004000000000004000000000000000000000000040000000000000000000000000000000000000000000000000000000000000000000040000000000000000000000000000000400000000000000000000000000000000000000000000000000000000002000000000000000000008000000000000000000000000000000000000000000000000000000000002000000000000000000000000000000000000000000000000000000000000000000000000000000000000000000000008000000100000000000000",
      "type": "0x2",
      "transactionHash": "0x2a72eba3089e798eff6c19a57ecf6ee4a758261e7de97bddd73be2fbac080248",
      "transactionIndex": "0xbc",
      "blockHash": "0x99d6a91bada1f6f7bd0bdead745014fa8b35d4141f7239f8a6726d3dae8286ea",
      "blockNumber": "0x857868",
      "gasUsed": "0x4b990",
      "effectiveGasPrice": "0x398684fb",
      "from": "0x8ffa18f05056458dbfb2f7a122f185878b2d6e2f",
      "to": "0x563472a6ced1608eddb94fc735471e8c92597ca5",
      "contractAddress": null
    }
  ],
  "libraries": [],
  "pending": [],
  "returns": {},
  "timestamp": 1752313093,
  "chain": 11155111,
  "commit": "a8d5c7c"
}