{
  "transactions": [
    {
      "hash": "0xa48d310756cd804de38b6d4d05cd52811836911783472cece1c52257d12e2f35",
      "transactionType": "CALL",
      "contractName": null,
      "contractAddress": "0x779877a7b0d9e8603169ddbd7836e478b4624789",
      "function": "approve(address,uint256)",
      "arguments": [
        "0x0BF3dE8c5D3e8A2B34D2BEeB17ABfCeBaf363A59",
        "18435255639428257"
      ],
      "transaction": {
        "from": "0x8ffa18f05056458dbfb2f7a122f185878b2d6e2f",
        "to": "0x779877a7b0d9e8603169ddbd7836e478b4624789",
        "gas": "0x1081f",
        "value": "0x0",
        "input": "0x095ea7b30000000000000000000000000bf3de8c5d3e8a2b34d2beeb17abfcebaf363a5900000000000000000000000000000000000000000000000000417ec46fbb4ca1",
        "nonce": "0xa9",
        "chainId": "0xaa36a7"
      },
      "additionalContracts": [],
      "isFixedGasLimit": false
    },
    {
      "hash": "0x635f4c57436f65280706f51bce538e91a9e587d7c0d6518e91a713ac9fd09e7c",
      "transactionType": "CALL",
      "contractName": null,
      "contractAddress": "0x5326e1521e47017667214852e3e84a65acf1cbbd",
      "function": "approve(address,uint256)",
      "arguments": [
        "0x0BF3dE8c5D3e8A2B34D2BEeB17ABfCeBaf363A59",
        "100000"
      ],
      "transaction": {
        "from": "0x8ffa18f05056458dbfb2f7a122f185878b2d6e2f",
        "to": "0x5326e1521e47017667214852e3e84a65acf1cbbd",
        "gas": "0x108da",
        "value": "0x0",
        "input": "0x095ea7b30000000000000000000000000bf3de8c5d3e8a2b34d2beeb17abfcebaf363a5900000000000000000000000000000000000000000000000000000000000186a0",
        "nonce": "0xaa",
        "chainId": "0xaa36a7"
      },
      "additionalContracts": [],
      "isFixedGasLimit": false
    },
    {
      "hash": "0x4723d43796f6e222ddc934ec13742284ec91cb843de183c2b180caf13b4f9e25",
      "transactionType": "CALL",
      "contractName": null,
      "contractAddress": "0x0bf3de8c5d3e8a2b34d2beeb17abfcebaf363a59",
      "function": "ccipSend(uint64,(bytes,bytes,(address,uint256)[],address,bytes))",
      "arguments": [
        "6898391096552792247",
        "(0x0000000000000000000000008ffa18f05056458dbfb2f7a122f185878b2d6e2f, 0x, [(0x5326e1521e47017667214852e3e84a65ACf1CbBD, 100000)], 0x779877A7B0D9E8603169DdbD7836e478b4624789, 0x97a657c90000000000000000000000000000000000000000000000000000000000000000)"
      ],
      "transaction": {
        "from": "0x8ffa18f05056458dbfb2f7a122f185878b2d6e2f",
        "to": "0x0bf3de8c5d3e8a2b34d2beeb17abfcebaf363a59",
        "gas": "0x5a753",
        "value": "0x0",
        "input": "0x96f4e9f90000000000000000000000000000000000000000000000005fbc02272fbf20b7000000000000000000000000000000000000000000000000000000000000004000000000000000000000000000000000000000000000000000000000000000a000000000000000000000000000000000000000000000000000000000000000e00000000000000000000000000000000000000000000000000000000000000100000000000000000000000000779877a7b0d9e8603169ddbd7836e478b4624789000000000000000000000000000000000000000000000000000000000000016000000000000000000000000000000000000000000000000000000000000000200000000000000000000000008ffa18f05056458dbfb2f7a122f185878b2d6e2f000000000000000000000000000000000000000000000000000000000000000000000000000000000000000000000000000000000000000000000000000000010000000000000000000000005326e1521e47017667214852e3e84a65acf1cbbd00000000000000000000000000000000000000000000000000000000000186a0000000000000000000000000000000000000000000000000000000000000002497a657c9000000000000000000000000000000000000000000000000000000000000000000000000000000000000000000000000000000000000000000000000",
        "nonce": "0xab",
        "chainId": "0xaa36a7"
      },
      "additionalContracts": [],
      "isFixedGasLimit": false
    }
  ],
  "receipts": [
    {
      "status": "0x1",
      "cumulativeGasUsed": "0x2f23e08",
      "logs": [
        {
          "address": "0x779877a7b0d9e8603169ddbd7836e478b4624789",
          "topics": [
            "0x8c5be1e5ebec7d5bd14f71427d1e84f3dd0314c0f7b2291e5b200ac8c7c3b925",
            "0x0000000000000000000000008ffa18f05056458dbfb2f7a122f185878b2d6e2f",
            "0x0000000000000000000000000bf3de8c5d3e8a2b34d2beeb17abfcebaf363a59"
          ],
          "data": "0x00000000000000000000000000000000000000000000000000417ec46fbb4ca1",
          "blockHash": "0x3a14494da91585058d582c3f79f3c94a5dbe8f8b9d39218a6926b8bc75f42496",
          "blockNumber": "0x8583a1",
          "blockTimestamp": "0x6872b3ec",
          "transactionHash": "0xa48d310756cd804de38b6d4d05cd52811836911783472cece1c52257d12e2f35",
          "transactionIndex": "0xb7",
          "logIndex": "0x14db",
          "removed": false
        }
      ],
      "logsBloom": "0x00000004000040000000000000000000000000000000000000000000000000000000000000000000000000000000000000000000000000000000000000200000000000000000000000000000000000000000000008000000000000000000000000000000000100800000000000000000008000000000000000000000000000000000000000000000000000000000800000000000000000000000000000000000020000000000080000000000000000000000000000000000000000000000000000000000000000000000000000000000000000000000000100000000000000000010000000000000000000000000000000000000000000000000000000000000",
      "type": "0x2",
      "transactionHash": "0xa48d310756cd804de38b6d4d05cd52811836911783472cece1c52257d12e2f35",
      "transactionIndex": "0xb7",
      "blockHash": "0x3a14494da91585058d582c3f79f3c94a5dbe8f8b9d39218a6926b8bc75f42496",
      "blockNumber": "0x8583a1",
      "gasUsed": "0xb499",
      "effectiveGasPrice": "0x39b104f5",
      "from": "0x8ffa18f05056458dbfb2f7a122f185878b2d6e2f",
      "to": "0x779877a7b0d9e8603169ddbd7836e478b4624789",
      "contractAddress": null
    },
    {
      "status": "0x1",
      "cumulativeGasUsed": "0x2f2f321",
      "logs": [
        {
          "address": "0x5326e1521e47017667214852e3e84a65acf1cbbd",
          "topics": [
            "0x8c5be1e5ebec7d5bd14f71427d1e84f3dd0314c0f7b2291e5b200ac8c7c3b925",
            "0x0000000000000000000000008ffa18f05056458dbfb2f7a122f185878b2d6e2f",
            "0x0000000000000000000000000bf3de8c5d3e8a2b34d2beeb17abfcebaf363a59"
          ],
          "data": "0x00000000000000000000000000000000000000000000000000000000000186a0",
          "blockHash": "0x3a14494da91585058d582c3f79f3c94a5dbe8f8b9d39218a6926b8bc75f42496",
          "blockNumber": "0x8583a1",
          "blockTimestamp": "0x6872b3ec",
          "transactionHash": "0x635f4c57436f65280706f51bce538e91a9e587d7c0d6518e91a713ac9fd09e7c",
          "transactionIndex": "0xb8",
          "logIndex": "0x14dc",
          "removed": false
        }
      ],
      "logsBloom": "0x00000000000040000000000000000000000000000000000000000000000000000000000000000000000004000080000000000000000000000000000000200000000000000000000000000000000000000000000008000000000000000000000000000000000100800000000000000000008000000000000000000000000000000000000000000000000000000000000000000000000000000000000000000000020000000000080000000000000000000000000000000000000000000000000000000000000000000000000000000000000000080000000000000000000000000010000000000000000000000000000000000000000000000000000000000000",
      "type": "0x2",
      "transactionHash": "0x635f4c57436f65280706f51bce538e91a9e587d7c0d6518e91a713ac9fd09e7c",
      "transactionIndex": "0xb8",
      "blockHash": "0x3a14494da91585058d582c3f79f3c94a5dbe8f8b9d39218a6926b8bc75f42496",
      "blockNumber": "0x8583a1",
      "gasUsed": "0xb519",
      "effectiveGasPrice": "0x39b104f5",
      "from": "0x8ffa18f05056458dbfb2f7a122f185878b2d6e2f",
      "to": "0x5326e1521e47017667214852e3e84a65acf1cbbd",
      "contractAddress": null
    },
    {
      "status": "0x1",
      "cumulativeGasUsed": "0x2f70af8",
      "logs": [
        {
          "address": "0x779877a7b0d9e8603169ddbd7836e478b4624789",
          "topics": [
            "0xddf252ad1be2c89b69c2b068fc378daa952ba7f163c4a11628f55a4df523b3ef",
            "0x0000000000000000000000008ffa18f05056458dbfb2f7a122f185878b2d6e2f",
            "0x000000000000000000000000a2865e4f36760f5fa5c8f958336120f2df0d974b"
          ],
          "data": "0x000000000000000000000000000000000000000000000000003b8a84087bba07",
          "blockHash": "0x3a14494da91585058d582c3f79f3c94a5dbe8f8b9d39218a6926b8bc75f42496",
          "blockNumber": "0x8583a1",
          "blockTimestamp": "0x6872b3ec",
          "transactionHash": "0x4723d43796f6e222ddc934ec13742284ec91cb843de183c2b180caf13b4f9e25",
          "transactionIndex": "0xb9",
          "logIndex": "0x14dd",
          "removed": false
        },
        {
          "address": "0x779877a7b0d9e8603169ddbd7836e478b4624789",
          "topics": [
            "0x8c5be1e5ebec7d5bd14f71427d1e84f3dd0314c0f7b2291e5b200ac8c7c3b925",
            "0x0000000000000000000000008ffa18f05056458dbfb2f7a122f185878b2d6e2f",
            "0x0000000000000000000000000bf3de8c5d3e8a2b34d2beeb17abfcebaf363a59"
          ],
          "data": "0x0000000000000000000000000000000000000000000000000005f440673f929a",
          "blockHash": "0x3a14494da91585058d582c3f79f3c94a5dbe8f8b9d39218a6926b8bc75f42496",
          "blockNumber": "0x8583a1",
          "blockTimestamp": "0x6872b3ec",
          "transactionHash": "0x4723d43796f6e222ddc934ec13742284ec91cb843de183c2b180caf13b4f9e25",
          "transactionIndex": "0xb9",
          "logIndex": "0x14de",
          "removed": false
        },
        {
          "address": "0x5326e1521e47017667214852e3e84a65acf1cbbd",
          "topics": [
            "0xddf252ad1be2c89b69c2b068fc378daa952ba7f163c4a11628f55a4df523b3ef",
            "0x0000000000000000000000000000000000000000000000000000000000000000",
            "0x0000000000000000000000008ffa18f05056458dbfb2f7a122f185878b2d6e2f"
          ],
          "data": "0x0000000000000000000000000000000000000000000000000000000000000000",
          "blockHash": "0x3a14494da91585058d582c3f79f3c94a5dbe8f8b9d39218a6926b8bc75f42496",
          "blockNumber": "0x8583a1",
          "blockTimestamp": "0x6872b3ec",
          "transactionHash": "0x4723d43796f6e222ddc934ec13742284ec91cb843de183c2b180caf13b4f9e25",
          "transactionIndex": "0xb9",
          "logIndex": "0x14df",
          "removed": false
        },
        {
          "address": "0x5326e1521e47017667214852e3e84a65acf1cbbd",
          "topics": [
            "0xddf252ad1be2c89b69c2b068fc378daa952ba7f163c4a11628f55a4df523b3ef",
            "0x0000000000000000000000000000000000000000000000000000000000000000",
            "0x00000000000000000000000076c929ad2ec58203e378ea428bcfac02b28d3b00"
          ],
          "data": "0x0000000000000000000000000000000000000000000000000000000000000000",
          "blockHash": "0x3a14494da91585058d582c3f79f3c94a5dbe8f8b9d39218a6926b8bc75f42496",
          "blockNumber": "0x8583a1",
          "blockTimestamp": "0x6872b3ec",
          "transactionHash": "0x4723d43796f6e222ddc934ec13742284ec91cb843de183c2b180caf13b4f9e25",
          "transactionIndex": "0xb9",
          "logIndex": "0x14e0",
          "removed": false
        },
        {
          "address": "0x5326e1521e47017667214852e3e84a65acf1cbbd",
          "topics": [
            "0xddf252ad1be2c89b69c2b068fc378daa952ba7f163c4a11628f55a4df523b3ef",
            "0x0000000000000000000000008ffa18f05056458dbfb2f7a122f185878b2d6e2f",
            "0x00000000000000000000000076c929ad2ec58203e378ea428bcfac02b28d3b00"
          ],
          "data": "0x00000000000000000000000000000000000000000000000000000000000186a0",
          "blockHash": "0x3a14494da91585058d582c3f79f3c94a5dbe8f8b9d39218a6926b8bc75f42496",
          "blockNumber": "0x8583a1",
          "blockTimestamp": "0x6872b3ec",
          "transactionHash": "0x4723d43796f6e222ddc934ec13742284ec91cb843de183c2b180caf13b4f9e25",
          "transactionIndex": "0xb9",
          "logIndex": "0x14e1",
          "removed": false
        },
        {
          "address": "0x5326e1521e47017667214852e3e84a65acf1cbbd",
          "topics": [
            "0xddf252ad1be2c89b69c2b068fc378daa952ba7f163c4a11628f55a4df523b3ef",
            "0x0000000000000000000000000000000000000000000000000000000000000000",
            "0x00000000000000000000000076c929ad2ec58203e378ea428bcfac02b28d3b00"
          ],
          "data": "0x0000000000000000000000000000000000000000000000000000000000000000",
          "blockHash": "0x3a14494da91585058d582c3f79f3c94a5dbe8f8b9d39218a6926b8bc75f42496",
          "blockNumber": "0x8583a1",
          "blockTimestamp": "0x6872b3ec",
          "transactionHash": "0x4723d43796f6e222ddc934ec13742284ec91cb843de183c2b180caf13b4f9e25",
          "transactionIndex": "0xb9",
          "logIndex": "0x14e2",
          "removed": false
        },
        {
          "address": "0x5326e1521e47017667214852e3e84a65acf1cbbd",
          "topics": [
            "0xddf252ad1be2c89b69c2b068fc378daa952ba7f163c4a11628f55a4df523b3ef",
            "0x00000000000000000000000076c929ad2ec58203e378ea428bcfac02b28d3b00",
            "0x0000000000000000000000000000000000000000000000000000000000000000"
          ],
          "data": "0x00000000000000000000000000000000000000000000000000000000000186a0",
          "blockHash": "0x3a14494da91585058d582c3f79f3c94a5dbe8f8b9d39218a6926b8bc75f42496",
          "blockNumber": "0x8583a1",
          "blockTimestamp": "0x6872b3ec",
          "transactionHash": "0x4723d43796f6e222ddc934ec13742284ec91cb843de183c2b180caf13b4f9e25",
          "transactionIndex": "0xb9",
          "logIndex": "0x14e3",
          "removed": false
        },
        {
          "address": "0xa2865e4f36760f5fa5c8f958336120f2df0d974b",
          "topics": [
            "0xd0c3c799bf9e2639de44391e7f524d229b2b55f5b1ea94b2bf7da42f7243dddd"
          ],
          "data": "0x0000000000000000000000000000000000000000000000000000000000000020000000000000000000000000000000000000000000000000de41ba4fc9d91ad90000000000000000000000008ffa18f05056458dbfb2f7a122f185878b2d6e2f0000000000000000000000008ffa18f05056458dbfb2f7a122f185878b2d6e2f00000000000000000000000000000000000000000000000000000000000002b5000000000000000000000000000000000000000000000000000000000000000000000000000000000000000000000000000000000000000000000000000000000000000000000000000000000000000000000000000000000000000000000001000000000000000000000000779877a7b0d9e8603169ddbd7836e478b4624789000000000000000000000000000000000000000000000000003b8a84087bba0700000000000000000000000000000000000000000000000000000000000001a000000000000000000000000000000000000000000000000000000000000001c00000000000000000000000000000000000000000000000000000000000000220311faa2dbeb721c54c4a18a4cf1845f8f3a7be5ce6bd8b55d251626fe27c5f12000000000000000000000000000000000000000000000000000000000000000000000000000000000000000000000000000000000000000000000000000000010000000000000000000000005326e1521e47017667214852e3e84a65acf1cbbd00000000000000000000000000000000000000000000000000000000000186a00000000000000000000000000000000000000000000000000000000000000001000000000000000000000000000000000000000000000000000000000000002000000000000000000000000000000000000000000000000000000000000001600000000000000000000000000000000000000000000000000000000000000020000000000000000000000000000000000000000000000000000000000000008000000000000000000000000000000000000000000000000000000000000000c000000000000000000000000000000000000000000000000000000000000001000000000000000000000000000000000000000000000000000000000000015f90000000000000000000000000000000000000000000000000000000000000002000000000000000000000000076c929ad2ec58203e378ea428bcfac02b28d3b0000000000000000000000000000000000000000000000000000000000000000200000000000000000000000000403177d81b23805f861f36fe76d6af8d806100000000000000000000000000000000000000000000000000000000000000000200000000000000000000000000000000000000000000000000000000ba43b7400",
          "blockHash": "0x3a14494da91585058d582c3f79f3c94a5dbe8f8b9d39218a6926b8bc75f42496",
          "blockNumber": "0x8583a1",
          "blockTimestamp": "0x6872b3ec",
          "transactionHash": "0x4723d43796f6e222ddc934ec13742284ec91cb843de183c2b180caf13b4f9e25",
          "transactionIndex": "0xb9",
          "logIndex": "0x14e4",
          "removed": false
        }
      ],
      "logsBloom": "0x00000004000040000000000000000000000000000000000000000000000000000000000000000000000004000080000000000000000000000008000000204000000000000000000000000008000000000000000008000000000000000000000090000000020100800000000000000800008000000000100000000010000000000000000000000000000000000000800000000000000000000000000000000000020000000000080400000000000000000000000000000000000100010000000000000002000000000000000000000000000000080100000100000000000020000010800000000000000000000000000004000800000000000000000000000000",
      "type": "0x2",
      "transactionHash": "0x4723d43796f6e222ddc934ec13742284ec91cb843de183c2b180caf13b4f9e25",
      "transactionIndex": "0xb9",
      "blockHash": "0x3a14494da91585058d582c3f79f3c94a5dbe8f8b9d39218a6926b8bc75f42496",
      "blockNumber": "0x8583a1",
      "gasUsed": "0x417d7",
      "effectiveGasPrice": "0x39b104f5",
      "from": "0x8ffa18f05056458dbfb2f7a122f185878b2d6e2f",
      "to": "0x0bf3de8c5d3e8a2b34d2beeb17abfcebaf363a59",
      "contractAddress": null
    }
  ],
  "libraries": [],
  "pending": [],
  "returns": {},
  "timestamp": 1752347630,
  "chain": 11155111,
  "commit": "a8d5c7c"
}