{
  "transactions": [
    {
      "hash": "0xa3b045e3633ee68c193772a8292cbdeb92b72a3c5ad401df6a70ca1187156c5d",
      "transactionType": "CREATE",
      "contractName": "Vault",
      "contractAddress": "0x833e7f96eb90226d91a27607d52952473354bc52",
      "function": null,
      "arguments": [
        "0xA0f1bb6CaD344E13CC0abEa81EEd78a3de9Fe5B8"
      ],
      "transaction": {
        "from": "0x8ffa18f05056458dbfb2f7a122f185878b2d6e2f",
        "gas": "0x575c7",
        "value": "0x0",
        "input": "0x60a060405234801561000f575f80fd5b5060405161049d38038061049d83398101604081905261002e9161003f565b6001600160a01b031660805261006c565b5f6020828403121561004f575f80fd5b81516001600160a01b0381168114610065575f80fd5b9392505050565b6080516103ff61009e5f395f8181604f0152818160b6015281816101590152818161020d015261029d01526103ff5ff3fe608060405260043610610036575f3560e01c806334a4edea14610041578063d0e30db01461008a578063db006a7514610094575f80fd5b3661003d57005b5f80fd5b34801561004c575f80fd5b507f00000000000000000000000000000000000000000000000000000000000000006040516001600160a01b03909116815260200160405180910390f35b6100926100b3565b005b34801561009f575f80fd5b506100926100ae36600461039b565b6101f0565b5f7f00000000000000000000000000000000000000000000000000000000000000006001600160a01b0316635257b5666040518163ffffffff1660e01b8152600401602060405180830381865afa158015610110573d5f803e3d5ffd5b505050506040513d601f19601f8201168201806040525081019061013491906103b2565b604051630ab714fb60e11b8152336004820152346024820152604481018290529091507f00000000000000000000000000000000000000000000000000000000000000006001600160a01b03169063156e29f6906064015f604051808303815f87803b1580156101a2575f80fd5b505af11580156101b4573d5f803e3d5ffd5b50506040513481523392507fe1fffcc4923d04b559f4d29a8bfc6cda04eb5b0d3c460751c2402c5c5cc9109c915060200160405180910390a250565b5f198103610281576040516370a0823160e01b81523360048201527f00000000000000000000000000000000000000000000000000000000000000006001600160a01b0316906370a0823190602401602060405180830381865afa15801561025a573d5f803e3d5ffd5b505050506040513d601f19601f8201168201806040525081019061027e91906103b2565b90505b604051632770a7eb60e21b8152336004820152602481018290527f00000000000000000000000000000000000000000000000000000000000000006001600160a01b031690639dc29fac906044015f604051808303815f87803b1580156102e6575f80fd5b505af11580156102f8573d5f803e3d5ffd5b50506040515f925033915083908381818185875af1925050503d805f811461033b576040519150601f19603f3d011682016040523d82523d5f602084013e610340565b606091505b5050905080610362576040516303eff1c560e31b815260040160405180910390fd5b60405182815233907f222838db2794d11532d940e8dec38ae307ed0b63cd97c233322e221f998767a69060200160405180910390a25050565b5f602082840312156103ab575f80fd5b5035919050565b5f602082840312156103c2575f80fd5b505191905056fea26469706673582212200a07e8f86b844e51a17c8c37e737d248addeac7a892e83e0002a27195d73372464736f6c63430008180033000000000000000000000000a0f1bb6cad344e13cc0abea81eed78a3de9fe5b8",
        "nonce": "0x9b",
        "chainId": "0xaa36a7"
      },
      "additionalContracts": [],
      "isFixedGasLimit": false
    },
    {
      "hash": "0x5f81be79101f5ed8631026f089c1028a2c436a1510d6e5624d9d3094d25943fe",
      "transactionType": "CALL",
      "contractName": null,
      "contractAddress": "0xa0f1bb6cad344e13cc0abea81eed78a3de9fe5b8",
      "function": "grantMintAndBurnRole(address)",
      "arguments": [
        "0x833e7f96eB90226d91a27607d52952473354bC52"
      ],
      "transaction": {
        "from": "0x8ffa18f05056458dbfb2f7a122f185878b2d6e2f",
        "to": "0xa0f1bb6cad344e13cc0abea81eed78a3de9fe5b8",
        "gas": "0x10601",
        "value": "0x0",
        "input": "0x7cfb3d71000000000000000000000000833e7f96eb90226d91a27607d52952473354bc52",
        "nonce": "0x9c",
        "chainId": "0xaa36a7"
      },
      "additionalContracts": [],
      "isFixedGasLimit": false
    }
  ],
  "receipts": [
    {
      "status": "0x1",
      "cumulativeGasUsed": "0x2fce16c",
      "logs": [],
      "logsBloom": "0x00000000000000000000000000000000000000000000000000000000000000000000000000000000000000000000000000000000000000000000000000000000000000000000000000000000000000000000000000000000000000000000000000000000000000000000000000000000000000000000000000000000000000000000000000000000000000000000000000000000000000000000000000000000000000000000000000000000000000000000000000000000000000000000000000000000000000000000000000000000000000000000000000000000000000000000000000000000000000000000000000000000000000000000000000000000",
      "type": "0x2",
      "transactionHash": "0xa3b045e3633ee68c193772a8292cbdeb92b72a3c5ad401df6a70ca1187156c5d",
      "transactionIndex": "0xae",
      "blockHash": "0x3cf4944fc0f4401fea6ad6dd081e2b0862d6c64b052fe250d06c8ee5271c9396",
      "blockNumber": "0x858366",
      "gasUsed": "0x43337",
      "effectiveGasPrice": "0x3a20b2b5",
      "from": "0x8ffa18f05056458dbfb2f7a122f185878b2d6e2f",
      "to": null,
      "contractAddress": "0x833e7f96eb90226d91a27607d52952473354bc52"
    },
    {
      "status": "0x1",
      "cumulativeGasUsed": "0x2fd9f1c",
      "logs": [
        {
          "address": "0xa0f1bb6cad344e13cc0abea81eed78a3de9fe5b8",
          "topics": [
            "0x2f8788117e7eff1d82e926ec794901d17c78024a50270940304540a733656f0d",
            "0x7429555b03aa5cf08cc5fc0890c97db295c9cec5e6bb1544bcd7fd1430dae3e2",
            "0x000000000000000000000000833e7f96eb90226d91a27607d52952473354bc52",
            "0x0000000000000000000000008ffa18f05056458dbfb2f7a122f185878b2d6e2f"
          ],
          "data": "0x",
          "blockHash": "0x3cf4944fc0f4401fea6ad6dd081e2b0862d6c64b052fe250d06c8ee5271c9396",
          "blockNumber": "0x858366",
          "blockTimestamp": "0x6872b128",
          "transactionHash": "0x5f81be79101f5ed8631026f089c1028a2c436a1510d6e5624d9d3094d25943fe",
          "transactionIndex": "0xaf",
          "logIndex": "0x14b6",
          "removed": false
        }
      ],
      "logsBloom": "0x00000004000000000000000000000000000001000000000000000000000000000000000000000000000000000000000000000000000000000000000000010000000000000000000000000000000000400000000008000000000000000000000000000200000000800000000000000000008000000000000000000000000000000000000000000000000000000000000000000000000000000000000000000000000000000000000000000000000000000000200000000004009000000000000000000000000000000000000001020000000000000000000100000000000000000000000000000000000000000000000000000000000000000000000000000000",
      "type": "0x2",
      "transactionHash": "0x5f81be79101f5ed8631026f089c1028a2c436a1510d6e5624d9d3094d25943fe",
      "transactionIndex": "0xaf",
      "blockHash": "0x3cf4944fc0f4401fea6ad6dd081e2b0862d6c64b052fe250d06c8ee5271c9396",
      "blockNumber": "0x858366",
      "gasUsed": "0xbdb0",
      "effectiveGasPrice": "0x3a20b2b5",
      "from": "0x8ffa18f05056458dbfb2f7a122f185878b2d6e2f",
      "to": "0xa0f1bb6cad344e13cc0abea81eed78a3de9fe5b8",
      "contractAddress": null
    }
  ],
  "libraries": [],
  "pending": [],
  "returns": {
    "vault": {
      "internal_type": "contract Vault",
      "value": "0x833e7f96eB90226d91a27607d52952473354bC52"
    }
  },
  "timestamp": 1752346921,
  "chain": 11155111,
  "commit": "a8d5c7c"
}