{
  "transactions": [
    {
      "hash": "0xadb0dddd2fa3c129c8d7501d88eaa82ac1ce7550fac542f9be76d3537ae23c71",
      "transactionType": "CREATE",
      "contractName": "Vault",
      "contractAddress": "0xbdae434b1a95584bc21afe64dd52562219ca6b22",
      "function": null,
      "arguments": [
        "0x5326e1521e47017667214852e3e84a65ACf1CbBD"
      ],
      "transaction": {
        "from": "0x8ffa18f05056458dbfb2f7a122f185878b2d6e2f",
        "gas": "0x575c7",
        "value": "0x0",
        "input": "0x60a060405234801561000f575f80fd5b5060405161049d38038061049d83398101604081905261002e9161003f565b6001600160a01b031660805261006c565b5f6020828403121561004f575f80fd5b81516001600160a01b0381168114610065575f80fd5b9392505050565b6080516103ff61009e5f395f8181604f0152818160b6015281816101590152818161020d015261029d01526103ff5ff3fe608060405260043610610036575f3560e01c806334a4edea14610041578063d0e30db01461008a578063db006a7514610094575f80fd5b3661003d57005b5f80fd5b34801561004c575f80fd5b507f00000000000000000000000000000000000000000000000000000000000000006040516001600160a01b03909116815260200160405180910390f35b6100926100b3565b005b34801561009f575f80fd5b506100926100ae36600461039b565b6101f0565b5f7f00000000000000000000000000000000000000000000000000000000000000006001600160a01b0316635257b5666040518163ffffffff1660e01b8152600401602060405180830381865afa158015610110573d5f803e3d5ffd5b505050506040513d601f19601f8201168201806040525081019061013491906103b2565b604051630ab714fb60e11b8152336004820152346024820152604481018290529091507f00000000000000000000000000000000000000000000000000000000000000006001600160a01b03169063156e29f6906064015f604051808303815f87803b1580156101a2575f80fd5b505af11580156101b4573d5f803e3d5ffd5b50506040513481523392507fe1fffcc4923d04b559f4d29a8bfc6cda04eb5b0d3c460751c2402c5c5cc9109c915060200160405180910390a250565b5f198103610281576040516370a0823160e01b81523360048201527f00000000000000000000000000000000000000000000000000000000000000006001600160a01b0316906370a0823190602401602060405180830381865afa15801561025a573d5f803e3d5ffd5b505050506040513d601f19601f8201168201806040525081019061027e91906103b2565b90505b604051632770a7eb60e21b8152336004820152602481018290527f00000000000000000000000000000000000000000000000000000000000000006001600160a01b031690639dc29fac906044015f604051808303815f87803b1580156102e6575f80fd5b505af11580156102f8573d5f803e3d5ffd5b50506040515f925033915083908381818185875af1925050503d805f811461033b576040519150601f19603f3d011682016040523d82523d5f602084013e610340565b606091505b5050905080610362576040516303eff1c560e31b815260040160405180910390fd5b60405182815233907f222838db2794d11532d940e8dec38ae307ed0b63cd97c233322e221f998767a69060200160405180910390a25050565b5f602082840312156103ab575f80fd5b5035919050565b5f602082840312156103c2575f80fd5b505191905056fea26469706673582212200a07e8f86b844e51a17c8c37e737d248addeac7a892e83e0002a27195d73372464736f6c634300081800330000000000000000000000005326e1521e47017667214852e3e84a65acf1cbbd",
        "nonce": "0xa5",
        "chainId": "0xaa36a7"
      },
      "additionalContracts": [],
      "isFixedGasLimit": false
    },
    {
      "hash": "0x8e21977d6a7a910f028f10547d47608521eed4de016ae17570ea42f8e1ce9dc2",
      "transactionType": "CALL",
      "contractName": null,
      "contractAddress": "0x5326e1521e47017667214852e3e84a65acf1cbbd",
      "function": "grantMintAndBurnRole(address)",
      "arguments": [
        "0xBdae434B1a95584bC21aFe64Dd52562219Ca6b22"
      ],
      "transaction": {
        "from": "0x8ffa18f05056458dbfb2f7a122f185878b2d6e2f",
        "to": "0x5326e1521e47017667214852e3e84a65acf1cbbd",
        "gas": "0x10601",
        "value": "0x0",
        "input": "0x7cfb3d71000000000000000000000000bdae434b1a95584bc21afe64dd52562219ca6b22",
        "nonce": "0xa6",
        "chainId": "0xaa36a7"
      },
      "additionalContracts": [],
      "isFixedGasLimit": false
    }
  ],
  "receipts": [
    {
      "status": "0x1",
      "cumulativeGasUsed": "0xdc7d22",
      "logs": [],
      "logsBloom": "0x00000000000000000000000000000000000000000000000000000000000000000000000000000000000000000000000000000000000000000000000000000000000000000000000000000000000000000000000000000000000000000000000000000000000000000000000000000000000000000000000000000000000000000000000000000000000000000000000000000000000000000000000000000000000000000000000000000000000000000000000000000000000000000000000000000000000000000000000000000000000000000000000000000000000000000000000000000000000000000000000000000000000000000000000000000000",
      "type": "0x2",
      "transactionHash": "0xadb0dddd2fa3c129c8d7501d88eaa82ac1ce7550fac542f9be76d3537ae23c71",
      "transactionIndex": "0x95",
      "blockHash": "0x684f68e8bf314bf61051defb2fcfdbc8133dbabf55a72a654fc5c926ab312894",
      "blockNumber": "0x85839a",
      "gasUsed": "0x43337",
      "effectiveGasPrice": "0x3fa69c7f",
      "from": "0x8ffa18f05056458dbfb2f7a122f185878b2d6e2f",
      "to": null,
      "contractAddress": "0xbdae434b1a95584bc21afe64dd52562219ca6b22"
    },
    {
      "status": "0x1",
      "cumulativeGasUsed": "0xdd3ad2",
      "logs": [
        {
          "address": "0x5326e1521e47017667214852e3e84a65acf1cbbd",
          "topics": [
            "0x2f8788117e7eff1d82e926ec794901d17c78024a50270940304540a733656f0d",
            "0x7429555b03aa5cf08cc5fc0890c97db295c9cec5e6bb1544bcd7fd1430dae3e2",
            "0x000000000000000000000000bdae434b1a95584bc21afe64dd52562219ca6b22",
            "0x0000000000000000000000008ffa18f05056458dbfb2f7a122f185878b2d6e2f"
          ],
          "data": "0x",
          "blockHash": "0x684f68e8bf314bf61051defb2fcfdbc8133dbabf55a72a654fc5c926ab312894",
          "blockNumber": "0x85839a",
          "blockTimestamp": "0x6872b398",
          "transactionHash": "0x8e21977d6a7a910f028f10547d47608521eed4de016ae17570ea42f8e1ce9dc2",
          "transactionIndex": "0x96",
          "logIndex": "0x109",
          "removed": false
        }
      ],
      "logsBloom": "0x00000004000000000000000000000000000080000000000000000000000000000000002000000000000004000080000000000000000000000000000000010000000000000000000000000000000000000200000008000000000000000000000000000000000000800000000000000000008000000000000000000000000000000000000000000000000000000000000000000000000000000000000000000000000000000000000000000000000000000000000000000004001000000000000000000000000000000000000000020000000000080000000100000000000000000000000000000000000000000000000000000000000000000000000000000000",
      "type": "0x2",
      "transactionHash": "0x8e21977d6a7a910f028f10547d47608521eed4de016ae17570ea42f8e1ce9dc2",
      "transactionIndex": "0x96",
      "blockHash": "0x684f68e8bf314bf61051defb2fcfdbc8133dbabf55a72a654fc5c926ab312894",
      "blockNumber": "0x85839a",
      "gasUsed": "0xbdb0",
      "effectiveGasPrice": "0x3fa69c7f",
      "from": "0x8ffa18f05056458dbfb2f7a122f185878b2d6e2f",
      "to": "0x5326e1521e47017667214852e3e84a65acf1cbbd",
      "contractAddress": null
    }
  ],
  "libraries": [],
  "pending": [],
  "returns": {
    "vault": {
      "internal_type": "contract Vault",
      "value": "0xBdae434B1a95584bC21aFe64Dd52562219Ca6b22"
    }
  },
  "timestamp": 1752347544,
  "chain": 11155111,
  "commit": "a8d5c7c"
}